:04000000E7EF09F02D
:0710000000202D2D2000004F
:10100800FFEC09F00B0E096E260E086E5E0EE82E38
:10101800FED7082EFCD7092EFAD710EC0AF00B0ED3
:10102800096E260E086E5E0EE82EFED7082EFCD737
:10103800092EFAD720EEBDF010EE30F0160EDBCFF9
:10104800E3FFE806FCE220EEA6F010EE47F0160EED
:10105800DBCFE3FFE806FCE220EE80F010EE0AF0BA
:10106800250EDBCFE3FFE806FCE2E5C06FF0E6C043
:1010780070F0E7C071F020EED4F010EE5EF0100EC4
:10108800DBCFE3FFE806FCE2300E016E000E026ED5
:1010980076EC09F06F0E016E000E026E76EC09F028
:1010A8005E0E016E000E026E76EC09F06F0E016E98
:1010B800000E026E76EC09F0000E7D6E000E7C6E5E
:1010C800000E736E000E726E000E7F6E000E7E6E46
:1010D800000E756E000E746E000E776E000E766E42
:1010E800000E796E000E786E000E7B6E000E7A6E22
:1010F800000E776E000E766E77BE06D0775014E13C
:101108000A0E765CD8B010D0000ECBEC09F001C006
:1011180072F002C073F072507C247C6E73507D2094
:101128007D6E764A772AE8D77CC001F07DC002F050
:10113800000E046E0A0E036EA2EC09F001C07CF0EA
:1011480002C07DF0000E7F6E000E7E6E2AD0000E6B
:10115800796E000E786E79BE06D0795014E10A0EC9
:10116800785CD8B010D0000ECBEC09F001C074F058
:1011780002C075F074507E247E6E75507F207F6E9D
:10118800784A792AE8D77EC001F07FC002F0000EC5
:10119800046E0A0E036EA2EC09F001C07EF002C0D4
:1011A8007FF07C507E5C7D507F58D8A0D0D77CC023
:1011B80008F07DC009F0081E091E084A092A7E5059
:1011C80008267F500922095004E1C90E085CD8A0FE
:1011D8002ED08380020E096E040E086EBA0EE82E19
:1011E800FED7082EFCD7092EFAD700D083827A04BE
:1011F8007B10D8A418D00A0E016E000E026E76EC91
:1012080009F0010E016E100E026E76EC09F05E0E0A
:10121800016E000E026E76EC09F06F0E016E000E84
:10122800026E76EC09F0000E7B6E000E21D08390E2
:10123800020E096E040E086EBA0EE82EFED7082EAE
:10124800FCD7092EFAD700D083927A507B10D8A405
:101258000CD0470E016E000E026E76EC09F06F0E90
:10126800016E000E026E76EC09F0000E7B6E010E28
:101278007A6E000E7F6E000E7E6E64D74761732013
:1012880076617A616E646F2120566572696669635A
:10129800617220636F6D20757267656E6369612185
:1012A8000A0053656D2076617A616D656E746F20F2
:1012B800646520676173210A00496E696369616426
:1012C8006F20636F6D205375636573736F210A0018
:1012D80049443A2043666C6F724150353034543279
:1012E800000D0A0016D09EA8FED701C0F6FF02C066
:1012F800F7FF000EF86E0F0EF76403D00800F550E4
:1013080005D0F6CFE9FFF7CFEAFFEF50AD6E014AFF
:10131800022A01C0F6FF02C0F7FF000EF86E0F0E9A
:10132800F76403D00800F55005D0F6CFE9FFF7CFF2
:10133800EAFFEF500009D8B41200D5D7000E066EA8
:10134800000E056E03500410D8B41CD0010E076EB1
:1013580004D0D89003360436072A04AEFAD7D890BA
:10136800053606360350015C04500258D8A005D053
:101378000350015E0450025A0580D89004320332AB
:10138800072EEDD705C001F006C002F01200056E69
:10139800070E056405D0000E026E000E016E1200E5
:1013A800010EC26E0D0EE82EFED700F0C282C2B248
:1013B800FED7C450046E036AC3500324016E000EA6
:1013C8000420026E1200840EF66E120EF76E000EE6
:1013D800F86E00EE80F010EE68F00900F5CFEEFF31
:1013E800E550E150FAE10001E96BE86B000EF86E98
:1013F800000104EF08F0F20ED36ED388D38AD38CA1
:10140800010EC26E0B0EC16EBC0EC06E0F0E926E38
:101418009590959283901200000E946E948E948C01
:10142800240EAC6E900EAB6E000EB86E330EAF6E1F
:021438001200A0
:020000040020DA
:08000000FFFFFFFFFFFFFFFF00
:020000040030CA
:0E000000FF081F1EFF0381FF0FC00FE00F401F
:00000001FF
